:100000000C943C000C944E000C944E000C944E004A
:100010000C944E000C944E000C944E000C944E0028
:100020000C944E000C944E000C944E000C944E0018
:100030000C944E000C944E000C944E000C944E0008
:100040000C944E000C944E000C944E000C944E00F8
:100050000C944E000C944E000C944E000C944E00E8
:100060000C944E000C944E000C944E000C944E00D8
:100070000C944E000C944E0011241FBECFEFCDBF48
:10008000DFE3DEBF28E3A0E0B8E301C01D92A830A3
:10009000B207E1F70E94A1000C94E2000C9400006A
:1000A000E0E0F6E081E08083818380E5828383E085
:1000B00080878AE2818785E0848780E4828708954B
:1000C0008091140690911506089560911006709124
:1000D00011068091120690911306089580910506ED
:1000E0008170089521E030E088ED84BF20936100A5
:1000F0000895CF93DF9383E00E94DB00C0E0D8E354
:100100008C810E94DB008D810E94DB008E810E9429
:10011000DB008F810E94DB008CEFDF91CF910C948C
:10012000DB00E0E2F4E084E88183A0E0B4E05596EF
:100130008C915597846055968C93868180688683D0
:1001400008950E9472000E9491000E9450000E9437
:10015000D20080910A06816080930A060E946E0098
:100160008823E1F30E94600080930438909305385F
:100170000E946500609300387093013880930238C4
:1001800090930338DC01CB012AE0B695A7959795AB
:1001900087952A95D1F780930638909307380E9467
:1001A0007900DCCFE0E0F8E080EC86838BE591E03D
:1001B0008087918708959091040895FFFCCF8093E4
:0801C00002080895F894FFCF36
:00000001FF
