:100000000C943C000C944E000C944E000C944E004A
:100010000C944E000C944E000C944E000C944E0028
:100020000C944E000C944E000C944E000C944E0018
:100030000C944E000C944E000C944E000C944E0008
:100040000C944E000C944E000C944E000C944E00F8
:100050000C944E000C944E000C944E000C944E00E8
:100060000C944E000C944E000C944E000C944E00D8
:100070000C944E000C944E0011241FBECFEFCDBF48
:10008000DFE3DEBF28E3A0E0B8E301C01D92A631A4
:10009000B207E1F70E94BF000C942E010C940000FF
:1000A00081E08093A0009FEF90938406E0E0F6E06B
:1000B0008083818380E5828383E080878AE08187F3
:1000C00083E3848784E48287089580911406909165
:1000D0001506089560911006709111068091120620
:1000E000909113060895809105068170089521E08E
:1000F00030E088ED84BF209361000895CF93DF93B3
:1001000083E00E942701C0E0D8E38C810E94270190
:100110008D810E9427018E810E9427018F810E947C
:10012000270188850E94270189850E9427018A85E9
:100130000E9427018B850E9427018C850E94270140
:100140008D850E9427018CEFDF91CF910C942701C0
:10015000E0E8F1E086E0808B81E080A781A7089548
:10016000E0E2F4E084E88183A0E0B4E055968C916D
:100170005597846055968C9380E8868308950E94F5
:1001800077000E94B0000E9450000E940E010E9461
:10019000A8000E941E01C0E80E9473008823E1F3BA
:1001A0000E94650080930438909305380E946A008D
:1001B000609300387093013880930238909303382D
:1001C0008B019C014AE036952795179507954A952E
:1001D000D1F755E0000F111F221F331F5A95D1F799
:1001E0000093063810930738209308383093093865
:1001F000DC01CB0165E0B695A795979587956A9543
:10020000D1F780930A3890930B38A0930C38B093B1
:100210000D380E947E00C0932704BECF81E08093FA
:1002200040011092470180E190E080934A01909351
:100230004B01809141018111FCCF0895E0E0F8E08D
:1002400080E486838BE591E0808791870895909183
:10025000040895FFFCCF809302080895F894FFCF1F
:00000001FF
