:100000000C943C000C944E000C944E000C944E004A
:100010000C944E000C944E000C944E000C944E0028
:100020000C944E000C944E000C944E000C944E0018
:100030000C944E000C944E000C944E000C944E0008
:100040000C944E000C944E000C944E000C944E00F8
:100050000C944E000C944E000C944E000C944E00E8
:100060000C944E000C944E000C944E000C944E00D8
:100070000C944E000C944E0011241FBECFEFCDBF48
:10008000DFE3DEBF28E3A0E0B8E301C01D92A631A4
:10009000B207E1F70E94C0000C9424010C94000008
:1000A00081E08093A0009FEF90938406E0E0F6E06B
:1000B0008083818380E5828383E080878AE08187F3
:1000C00083E3848784E48287089580911406909165
:1000D0001506089560911006709111068091120620
:1000E000909113060895809105068170089521E08E
:1000F00030E088ED84BF209361000895CF93DF93B3
:1001000083E00E941C01C0E0D8E38C810E941C01A6
:100110008D810E941C018E810E941C018F810E9492
:100120001C0188850E941C0189850E941C018A850A
:100130000E941C018B850E941C018C850E941C0161
:100140008D850E941C018CEF0E941C01DF91CF91D4
:100150000895E0E8F1E086E0808B81E080A781A748
:100160000895E0E2F4E084E88183A0E0B4E05596ED
:100170008C915597846055968C9380E8868308957A
:100180000E9477000E94B1000E9450000E94060168
:100190000E94A9000E941301C0E0D8E300E214E02D
:1001A0006894BB24B7F80E9473008823E1F30E948F
:1001B00065008C839D830E946A00688379838A83AB
:1001C0009B836B017C01689414F8F694E794D794B0
:1001D000C7941694D1F720EEC22227E0F222CE82F5
:1001E000DF82E886F986DC01CB01689414F8B695C5
:1001F000A795979587951694D1F78A879B87AC87A3
:10020000BD870E947E00F801B782CDCFE0E4F1E027
:1002100081E08083178280E190E0828793878181EB
:100220008111FDCF0895E0E0F8E080E486838BE55E
:1002300091E0808791870895E0E0F8E0948195FF50
:0C024000FDCF809302080895F894FFCFD2
:00000001FF
