S013000041737369676E6D656E74332E73726563C5
S11300000C943C000C944E000C944E000C944E0046
S11300100C944E000C944E000C944E000C944E0024
S11300200C944E000C944E000C944E000C944E0014
S11300300C944E000C944E000C944E000C944E0004
S11300400C944E000C944E000C944E000C944E00F4
S11300500C944E000C944E000C944E000C944E00E4
S11300600C944E000C944E000C944E000C944E00D4
S11300700C944E000C944E0011241FBECFEFCDBF44
S1130080DFE3DEBF28E3A0E0B8E301C01D92A631A0
S1130090B207E1F70E94B8000C9401010C9400002F
S11300A0E0E0F6E081E08083818380E5828383E081
S11300B08087118684E48287089580911406909144
S11300C0150608956091100670911106809112062C
S11300D0909113060895809105068170089521E09A
S11300E030E088ED84BF209361000895CF93DF93BF
S11300F083E00E94F900C0E0D8E38C810E94F900FB
S11301008D810E94F9008E810E94F9008F810E94E6
S1130110F90088850E94F90089850E94F9008A8582
S11301200E94F9008B850E94F9008C850E94F900D9
S11301308D850E94F9008CEF0E94F900DF91CF9128
S11301400895E0E8F1E086E0808B81E080A781A754
S11301500895E0E2F4E084E88183A0E0B4E05596F9
S11301608C915597846055968C9380E88683089586
S11301700E946F000E94A9000E9450000E94E300A8
S11301800E94A1000E94F000C0E0D8E36894EE242D
S1130190E5F8FF24F2F810E80E946B008823E1F3ED
S11301A00E945D008C839D830E9462006883798332
S11301B08A839B836E837F83888799870E947600D6
S11301C0F7011783E9CFE0E4F1E081E0808317824F
S11301D080E190E08287938781818111FDCF08952A
S11301E0E0E0F8E080E486838BE591E08087918706
S11301F00895E0E0F8E0948195FFFDCF8093020834
S10902000895F894FFCFFD
S9030000FC
