:100000000C943C000C944E000C944E000C944E004A
:100010000C944E000C944E000C944E000C944E0028
:100020000C944E000C944E000C944E000C944E0018
:100030000C944E000C944E000C944E000C944E0008
:100040000C944E000C944E000C944E000C944E00F8
:100050000C944E000C944E000C944E000C944E00E8
:100060000C944E000C944E000C944E000C944E00D8
:100070000C944E000C944E0011241FBECFEFCDBF48
:10008000DFE3DEBF28E3A0E0B8E301C01D92A630A5
:10009000B207E1F70E945E000C94C6000C940000C9
:1000A000E0E0F6E081E08083118284E2828386E3EF
:1000B000808782E3848780E1828708950E945000D0
:1000C000E0E0F1E1C1A1C0A0E0E0F6E00C2E000C00
:1000D000DD0BD12CE12CF12C82858160828785811A
:1000E00080FFFDCF80899189A289B389B695A795B4
:1000F00097958795B695A79597958795809304389A
:1001000090930538A0910438B0910538AC1BBD0B15
:10011000A70196010E94AC00DC01CB0180589F4FE3
:10012000AF4FBF4F892F9A2FAB2FBB278093023839
:100130009093033880910238909103388151914017
:10014000809300389093013825E186E195E02150B5
:1001500080409040E1F7C0CF0E94B700A59F900D6E
:10016000B49F900DA49F800D911D11240895A29F0E
:10017000B001B39FC001A39F700D811D1124911D7B
:10018000B29F700D811D1124911D0895F894FFCF29
:00000001FF
