S022000041737369676E6D656E74315F736F6C7574696F6E5F62757273742E737265634D
S11300000C943C000C944E000C944E000C944E0046
S11300100C944E000C944E000C944E000C944E0024
S11300200C944E000C944E000C944E000C944E0014
S11300300C944E000C944E000C944E000C944E0004
S11300400C944E000C944E000C944E000C944E00F4
S11300500C944E000C944E000C944E000C944E00E4
S11300600C944E000C944E000C944E000C944E00D4
S11300700C944E000C944E0011241FBECFEFCDBF44
S1130080DFE3DEBF28E3A0E0B8E301C01D92A8309F
S1130090B207E1F70E94B4000C94F5000C94000040
S11300A021E030E088ED84BF209361000895CF9370
S11300B0DF9383E00E948900C0E0D8E38C810E9432
S11300C089008D810E9489008E810E9489008F8120
S11300D00E9489008CEF0E948900DF91CF910895DE
S11300E0E0E2F4E084E88183A0E0B4E055968C91EA
S11300F05597846055968C9386818068868308958D
S1130100E0E0F8E080EC86838BE591E080879187DE
S11301100895E0E0F8E0948195FFFDCF8093020814
S11301200895E0E0F6E081E0808383E0818380E568
S1130130828382E080878AE2818786E0848780E404
S11301408287089580911406909115060895609110
S1130150100670911106809112069091130608956D
S113016080910506817008950E9450000E947000DD
S11301700E9491000E948000E0E0F6E082858160A8
S1130180828700E214E0C0E80F2EF0E0EF2EF8E3DF
S1130190FF2EF02DF801C783FFE32DE083E0F1503B
S11301A020408040E1F700C000000E94B000882396
S11301B089F30E94A200F701848395830E94A7001B
S11301C0F7016083718382839383DC01CB01072E63
S11301D07AE0B695A795979587957A95D1F7702D7E
S11101E0868397830E945700D5CFF894FFCFF3
S9030000FC
