:100000000C943C000C944E000C944E000C944E004A
:100010000C944E000C944E000C944E000C944E0028
:100020000C944E000C944E000C944E000C944E0018
:100030000C944E000C944E000C944E000C944E0008
:100040000C944E000C944E000C944E000C944E00F8
:100050000C944E000C944E000C944E000C944E00E8
:100060000C944E000C944E000C944E000C944E00D8
:100070000C944E000C944E0011241FBECFEFCDBF48
:10008000DFE3DEBF28E3A0E0B8E301C01D92A631A4
:10009000B207E1F70E94B7000C9405010C94000030
:1000A000E0E0F6E081E08083818380E5828383E085
:1000B0008087118684E48287089580911406909148
:1000C0001506089560911006709111068091120630
:1000D000909113060895809105068170089521E09E
:1000E00030E088ED84BF209361000895CF93DF93C3
:1000F00083E00E94FE00C0E0D8E38C810E94FE00F5
:100100008D810E94FE008E810E94FE008F810E94E0
:10011000FE0088850E94FE0089850E94FE008A8577
:100120000E94FE008B850E94FE008C850E94FE00CE
:100130008D850E94FE008CEFDF91CF910C94FE0024
:10014000E0E8F1E086E0808B81E080A781A7089558
:10015000E0E2F4E084E88183A0E0B4E055968C917D
:100160005597846055968C9380E8868308950E9405
:100170006F000E94A8000E9450000E94E5000E94AB
:10018000A0000E94F500C0E80E946B008823E1F304
:100190000E945D0080930438909305380E946200AD
:1001A000609300387093013880930238909303383D
:1001B0006093063870930738809308389093093815
:1001C0000E947600C0932704DFCF81E08093400136
:1001D0001092470180E190E080934A0190934B0197
:1001E000809141018111FCCF0895E0E0F8E080E4C6
:1001F00086838BE591E0808791870895909104082C
:0E02000095FFFCCF809302080895F894FFCF7D
:00000001FF
