:100000000C943C000C944E000C944E000C944E004A
:100010000C944E000C944E000C944E000C944E0028
:100020000C944E000C944E000C944E000C944E0018
:100030000C944E000C944E000C944E000C944E0008
:100040000C944E000C944E000C944E000C944E00F8
:100050000C944E000C944E000C947A000C944E00BC
:100060000C944E000C944E000C944E000C944E00D8
:100070000C944E000C944E0011241FBECFEFCDBF48
:10008000DFE3DEBF28E3A0E0B8E301C01D92AB30A0
:10009000B207E1F70E94F2000C9452010C940000A8
:1000A000E0E0F6E081E8808381E0818390E592835F
:1000B00093E090879AE0918795E0948794E2928705
:1000C0008483089580911406909115060895609197
:1000D00010067091110680911206909113060895F2
:1000E00080910038882321F01092003881E0089533
:1000F00080E008951F920F920FB60F9211248F93F4
:10010000EF93FF938091050680FF08C0E0E0F6E0E2
:1001100085818160858381E080930038FF91EF9134
:100120008F910F900FBE0F901F90189521E030E037
:1001300088ED84BF209361000895CF93DF9383E01F
:100140000E944A01C1E0D8E38C810E944A018D815E
:100150000E944A018E810E944A018F810E944A01B9
:100160008CEF0E944A01E0E0F8E0848186FFFDCF39
:10017000E0E0F8E0848180648483DF91CF9108958A
:10018000E0E8F1E086E0808B81E080A70895E0E27E
:10019000F4E084E88183A0E0B4E055968C91559713
:1001A000846055968C9380E886830895E0E0F4E0BF
:1001B0008CE0808B818B828B838B848B858B878B70
:1001C000E0E2F4E0808B818B838B848B858B868B44
:1001D000878BE0E4F4E0808B818B828B838B848B34
:1001E000858B08950E94D6000E9496000E94C70049
:1001F0000E9450000E942B010E94C0000E944101F9
:100200000E943D017894C1E0D8E300E214E06894D4
:10021000FF24F7F888950E9470008823D9F30E9484
:1002200062008C839D830E946700688379838A8340
:100230009B83DC01CB01072E7AE0B695A7959795B5
:1002400087957A95D1F7702D8E839F830E949D00AC
:10025000F801F782DFCFE0E4F1E081818111FDCF89
:10026000E0E4F1E081E88083178281E090E082871A
:10027000938781818111FDCF089583E080935000A1
:100280000895E0E0F8E080E486838BE591E08087E4
:1002900091870895E0E0F8E0948195FFFDCF809389
:0802A00002080895F894FFCF55
:00000001FF
