:100000000C943C000C944E000C944E000C944E004A
:100010000C944E000C944E000C944E000C944E0028
:100020000C944E000C944E000C944E000C944E0018
:100030000C944E000C944E000C944E000C944E0008
:100040000C944E000C944E000C944E000C944E00F8
:100050000C944E000C944E000C944E000C944E00E8
:100060000C944E000C944E000C944E000C944E00D8
:100070000C944E000C944E0011241FBECFEFCDBF48
:10008000DFE3DEBF28E3A0E0B8E301C01D92A030AB
:10009000B207E1F70E9468000C947A000C9400000B
:1000A000089521E030E088ED84BF20936100089539
:1000B000E0E2F4E084E88183A0E0B4E055968C911E
:1000C0005597846055968C938681806886830895C1
:1000D0000E9451000E9458000E9450000E9471002E
:1000E000FFCFE0E0F8E080EC86838BE591E080874D
:0800F00091870895F894FFCFF9
:00000001FF
