:100000000C943C000C944E000C944E000C944E004A
:100010000C944E000C944E000C944E000C944E0028
:100020000C944E000C944E000C944E000C944E0018
:100030000C944E000C944E000C944E000C944E0008
:100040000C944E000C944E000C944E000C944E00F8
:100050000C944E000C944E000C944E000C944E00E8
:100060000C944E000C944E000C944E000C944E00D8
:100070000C944E000C944E0011241FBECFEFCDBF48
:10008000DFE3DEBF28E3A0E0B8E301C01D92A630A5
:10009000B207E1F70E94A7000C9455020C940000EF
:1000A00081E08093A0009EEC90938406E0E0F6E06F
:1000B000808383E0818395E59283808780E28187D6
:1000C00085E0848783E385878285806982870895B8
:1000D000809114069091150608958091050681700F
:1000E000089521E030E088ED84BF209361000895F9
:1000F000CF93DF9383E00E94E000C0E0D8E38881E3
:100100000E94E00089810E94E0008A810E94E00054
:100110008B810E94E0008C810E94E0008D810E9412
:10012000E0008CEF0E94E000DF91CF910895E0E2C3
:10013000F4E084E88183A0E0B4E055968C91559773
:10014000846055968C9386818068868308950E948A
:1001500071000E9497000E9450000E94D700E0E0CA
:10016000F6E0828581608287C0E0D8E30E946D005E
:100170008823E1F30E94680088839983BC01990F6A
:10018000880B990B0E945C012FE632E143E050E4BA
:100190000E94E80120E030EE4FEF54E40E94E800B6
:1001A0006A837B838C839D830E947800DFCFE0E0AD
:1001B000F8E080EC86838BE591E080879187089555
:1001C000E0E0F8E0948195FFFDCF80930208089568
:1001D0000E94FC000C94AE010E94A70158F00E94FE
:1001E000A00140F029F45F3F29F00C9497015111D0
:1001F0000C94E2010C949D010E94BF0168F39923C5
:10020000B1F3552391F3951B550BBB27AA27621712
:100210007307840738F09F5F5F4F220F331F441F1F
:10022000AA1FA9F335D00E2E3AF0E0E832D0915053
:100230005040E695001CCAF72BD0FE2F29D0660F40
:10024000771F881FBB1F261737074807AB07B0E883
:1002500009F0BB0B802DBF01FF2793585F4F3AF089
:100260009E3F510578F00C9497010C94E2015F3F9A
:10027000E4F3983ED4F3869577956795B795F7950F
:100280009F5FC9F7880F911D9695879597F90895F7
:10029000E1E0660F771F881FBB1F62177307840793
:1002A000BA0720F0621B730B840BBA0BEE1F88F7A2
:1002B000E0950895E89409C097FB3EF490958095E9
:1002C000709561957F4F8F4F9F4F9923A9F0F92F1C
:1002D00096E9BB279395F695879577956795B7959A
:1002E000F111F8CFFAF4BB0F11F460FF1BC06F5F80
:1002F0007F4F8F4F9F4F16C0882311F096E911C092
:10030000772321F09EE8872F762F05C0662371F0B2
:1003100096E8862F70E060E02AF09A95660F771FC6
:10032000881FDAF7880F9695879597F9089597F9BA
:100330009F6780E870E060E008959FEF80EC08958B
:1003400000240A94161617061806090608950024B4
:100350000A9412161306140605060895092E03942E
:10036000000C11F4882352F0BB0F40F4BF2B11F4A2
:1003700060FF04C06F5F7F4F8F4F9F4F089557FD01
:100380009058440F551F59F05F3F71F04795880F03
:1003900097FB991F61F09F3F79F08795089512169A
:1003A00013061406551FF2CF4695F1DF08C0161646
:1003B00017061806991FF1CF8695710561050894F7
:1003C0000895E894BB2766277727CB0197F908950E
:1003D0000E94FB010C94AE010E94A00138F00E9423
:1003E000A70120F0952311F00C9497010C949D0126
:1003F00011240C94E2010E94BF0170F3959FC1F398
:10040000950F50E0551F629FF001729FBB27F00DC2
:10041000B11D639FAA27F00DB11DAA1F649F662717
:10042000B00DA11D661F829F2227B00DA11D621F66
:10043000739FB00DA11D621F839FA00D611D221F20
:10044000749F3327A00D611D231F849F600D211D04
:10045000822F762F6A2F11249F5750409AF0F1F087
:1004600088234AF0EE0FFF1FBB1F661F771F881FF0
:1004700091505040A9F79E3F510580F00C94970190
:100480000C94E2015F3FE4F3983ED4F386957795B0
:100490006795B795F795E7959F5FC1F7FE2B880F96
:0E04A000911D9695879597F90895F894FFCFD2
:00000001FF
