:100000000C943C000C944E000C944E000C944E004A
:100010000C944E000C944E000C944E000C944E0028
:100020000C944E000C944E000C944E000C944E0018
:100030000C944E000C944E000C944E000C944E0008
:100040000C944E000C944E000C944E000C944E00F8
:100050000C944E000C944E000C944E000C944E00E8
:100060000C944E000C944E000C944E000C944E00D8
:100070000C944E000C944E0011241FBECFEFCDBF48
:10008000DFE3DEBF28E3A0E0B8E301C01D92A830A3
:10009000B207E1F70E94A1000C94D9000C94000073
:1000A000E0E0F6E081E08083818380E5828383E085
:1000B000808780E2818785E0848780E18287089558
:1000C0008091140690911506089560911006709124
:1000D00011068091120690911306089580910506ED
:1000E0008170089521E030E088ED84BF20936100A5
:1000F0000895CF93DF9383E00E94D200C0E0D8E35D
:100100008C810E94D2008D810E94D2008E810E943B
:10011000D2008F810E94D2008CEFDF91CF910C949E
:10012000D200E0E2F4E084E88183A0E0B4E05596F8
:100130008C915597846055968C93868180688683D0
:1001400008950E9472000E9491000E9450000E9437
:10015000C90080910A06816080930A060E946E00A1
:100160008823E1F30E94600080930438909305385F
:100170000E946500609300387093013880930238C4
:100180009093033860930638709307380E94790083
:10019000E5CFE0E0F8E080EC86838BE591E08087B6
:1001A000918708959091040895FFFCCF80930208F1
:0601B0000895F894FFCF52
:00000001FF
