:100000000C943C000C944E000C944E000C944E004A
:100010000C944E000C944E000C944E000C944E0028
:100020000C944E000C944E000C944E000C944E0018
:100030000C944E000C944E000C944E000C944E0008
:100040000C944E000C944E000C944E000C944E00F8
:100050000C944E000C944E000C944E000C944E00E8
:100060000C944E000C944E000C944E000C944E00D8
:100070000C944E000C944E0011241FBECFEFCDBF48
:10008000DFE3DEBF28E3A0E0B8E301C01D92AA30A1
:10009000B207E1F70E94A8000C94FE000C94000047
:1000A000E0E0F6E081E08083818380E5828383E085
:1000B00080878AE0818785E0848784E48287089549
:1000C0008091140690911506089560911006709124
:1000D00011068091120690911306089580910506ED
:1000E0008170089521E030E088ED84BF20936100A5
:1000F0000895CF93DF9383E00E94F600C0E0D8E339
:100100008C810E94F6008D810E94F6008E810E94F3
:10011000F6008F810E94F6008CEF0E94F600DF91BE
:10012000CF910895E0E8F1E086E0808B81E080A740
:100130000895E0E2F4E084E88183A0E0B4E055961D
:100140008C915597846055968C9380E886830895AA
:100150000E9472000E9499000E9450000E94DB00E1
:100160000E9492000E94ED00C0E0D8E300E214E09B
:100170006894FF24F7F80E946E008823E1F30E9440
:1001800060008C839D830E946500688379838A83E5
:100190009B83DC01CB01072E7AE0B695A795979556
:1001A00087957A95D1F7702D8E839F830E94790071
:1001B000F801F782E0CFE0E4F1E081818111FDCF29
:1001C000E0E4F1E081E08083178280E092E08287C2
:1001D000938781818111FDCF0895E0E0F8E080E40C
:1001E00086838BE591E0808791870895E0E0F8E0D1
:1001F000948195FFFDCF809302080895F894FFCF76
:00000001FF
