S013000041737369676E6D656E74342E73726563C4
S11300000C943C000C944E000C944E000C944E0046
S11300100C944E000C944E000C944E000C944E0024
S11300200C944E000C944E000C944E000C944E0014
S11300300C944E000C944E000C944E000C944E0004
S11300400C944E000C944E000C944E000C944E00F4
S11300500C944E000C944E000C944E000C944E00E4
S11300600C944E000C944E000C944E000C944E00D4
S11300700C944E000C944E0011241FBECFEFCDBF44
S1130080DFE3DEBF28E3A0E0B8E301C01D92A030A7
S1130090B207E1F70E9457000C946A000C94000028
S11300A0E0E0F6E081E0808380E1828708950E94A9
S11300B0500080910A06816080930A0680910506AB
S11300C080FFFCCF25E186E195E0215080409040FF
S10B00D0E1F7EFCFF894FFCF34
S9030000FC
