S0110000536F6C7574696F6E362E7372656380
S11300000C943C000C944E000C944E000C944E0046
S11300100C944E000C944E000C944E000C944E0024
S11300200C944E000C944E000C944E000C944E0014
S11300300C944E000C944E000C944E000C944E0004
S11300400C944E000C944E000C944E000C944E00F4
S11300500C944E000C944E000C944E000C944E00E4
S11300600C944E000C944E000C944E000C944E00D4
S11300700C944E000C944E0011241FBECFEFCDBF44
S1130080DFE3DEBF28E3A0E0B8E301C01D92A231A4
S1130090B207E1F70E94B1000C9404010C94000033
S11300A0E0E0F6E081E08083818380E5828383E081
S11300B080878AE0818786E4848784E482878BE56D
S11300C08387089580911406909115060895609190
S11300D010067091110680911206909113060895EE
S11300E0809105068170089521E030E088ED84BF99
S11300F0209361000895CF93DF9383E00E94FC0076
S1130100C0E0D8E38C810E94FC008D810E94FC0039
S11301108E810E94FC008F810E94FC0088850E94D1
S1130120FC0089850E94FC008CEF0E94FC00DF919A
S1130130CF910895E0E8F1E086E0808B81E080A72C
S113014081A70895E0E2F4E084E88183A0E0B4E0CC
S113015056968C915697846056968C9380E8868345
S113016008950E9474000E94A2000E9450000E9400
S1130170E6000E949A000E94F300C0E0D8E300E287
S113018014E06894FF24F7F80E9470008823E1F3D8
S11301900E9462008C839D830E9467006883798338
S11301A08A839B83DC01CB01072E7AE0B695A79561
S11301B0979587957A95D1F7702D8E839F83A8871D
S11301C0B9870E947B00F801F782DECFE0E4F1E01A
S11301D081E08083178280E190E082879387818128
S11301E08111FDCF0895E0E0F8E080E486838BE59B
S11301F091E0808791870895E0E0F8E0948195FF8D
S10F0200FDCF809302080895F894FFCF0E
S9030000FC
