:100000000C943C000C944E000C944E000C944E004A
:100010000C944E000C944E000C944E000C944E0028
:100020000C944E000C944E000C944E000C944E0018
:100030000C944E000C944E000C944E000C944E0008
:100040000C944E000C944E000C944E000C944E00F8
:100050000C944E000C944E000C944E000C944E00E8
:100060000C944E000C944E000C944E000C944E00D8
:100070000C944E000C944E0011241FBECFEFCDBF48
:10008000DFE3DEBF28E3A0E0B8E301C01D92A030AB
:10009000B207E1F70E9457000C9469000C9400002D
:1000A000E0E0F6E081E0808380E1828708950E94AD
:1000B0005000E0E0F6E0828581608287858180FFE4
:1000C000FDCF25E186E195E0215080409040E1F7A9
:0600D000F2CFF894FFCF0F
:00000001FF
