S013000041737369676E6D656E74322E73726563C6
S11300000C943C000C944E000C944E000C944E0046
S11300100C944E000C944E000C944E000C944E0024
S11300200C944E000C944E000C944E000C944E0014
S11300300C944E000C944E000C944E000C944E0004
S11300400C944E000C944E000C944E000C944E00F4
S11300500C944E000C944E000C9470000C944E00C2
S11300600C944E000C944E000C944E000C944E00D4
S11300700C944E000C944E0011241FBECFEFCDBF44
S1130080DFE3DEBF28E3A0E0B8E301C01D92AB309C
S1130090B207E1F70E94C2000C9418010C9400000E
S11300A0E0E0F6E081E08083818380E5828383E081
S11300B080878AE0818785E084870895809114068B
S11300C09091150608956091100670911106809123
S11300D01206909113060895809105068170089583
S11300E01F920F920FB60F9211248F93EF93FF93E9
S11300F08091050680FF08C0E0E0F6E0858181601C
S1130100858381E080930038FF91EF918F910F9068
S11301100FBE0F901F90189521E030E088ED84BF4A
S1130120209361000895CF93DF9383E00E94100130
S1130130C1E0D8E38C810E9410018D810E941001DE
S11301408E810E9410018F810E9410018CEF0E9409
S11301501001DF91CF910895E0E8F1E086E0808B13
S113016081E080A70895E0E2F4E084E88183A0E0E0
S1130170B4E055968C915597846055968C9380E89D
S1130180868308950E948C000E94B3000E94500050
S11301900E94F5000E94AC000E940701C1E0D8E370
S11301A000E214E06894FF24F7F80E946C008823AE
S11301B0E1F30E945E008C839D830E946300688348
S11301C079838A839B83DC01CB01072E7AE0B69581
S11301D0A795979587957A95D1F7702D8E839F83F0
S11301E00E949300F801F782E0CFE0E4F1E081811E
S11301F08111FDCFE0E4F1E081E88083178280E0A3
S113020092E08287938781818111FDCF0895E0E098
S1130210F8E080E486838BE591E0808791870895F8
S1130220E0E0F8E0948195FFFDCF80930208089503
S1070230F894FFCF6C
S9030000FC
